{
  "contractName": "PatienceRegulationEngine",
  "abi": [
    {
      "constant": false,
      "inputs": [
        {
          "name": "recipient",
          "type": "address"
        }
      ],
      "name": "transferPrimary",
      "outputs": [],
      "payable": false,
      "stateMutability": "nonpayable",
      "type": "function"
    },
    {
      "constant": false,
      "inputs": [
        {
          "name": "controller",
          "type": "address"
        }
      ],
      "name": "setVersionController",
      "outputs": [],
      "payable": false,
      "stateMutability": "nonpayable",
      "type": "function"
    },
    {
      "constant": true,
      "inputs": [],
      "name": "primary",
      "outputs": [
        {
          "name": "",
          "type": "address"
        }
      ],
      "payable": false,
      "stateMutability": "view",
      "type": "function"
    },
    {
      "inputs": [],
      "payable": false,
      "stateMutability": "nonpayable",
      "type": "constructor"
    },
    {
      "anonymous": false,
      "inputs": [
        {
          "indexed": false,
          "name": "recipient",
          "type": "address"
        }
      ],
      "name": "PrimaryTransferred",
      "type": "event"
    },
    {
      "constant": false,
      "inputs": [
        {
          "name": "c",
          "type": "uint256"
        }
      ],
      "name": "setClaimWindowsPerAdjustment",
      "outputs": [],
      "payable": false,
      "stateMutability": "nonpayable",
      "type": "function"
    },
    {
      "constant": true,
      "inputs": [
        {
          "name": "holder",
          "type": "address"
        }
      ],
      "name": "getPenaltyDrawdownPeriodForHolder",
      "outputs": [
        {
          "name": "",
          "type": "uint256"
        }
      ],
      "payable": false,
      "stateMutability": "view",
      "type": "function"
    },
    {
      "constant": true,
      "inputs": [],
      "name": "getCurrentAdjustmentWeight",
      "outputs": [
        {
          "name": "",
          "type": "int256"
        }
      ],
      "payable": false,
      "stateMutability": "view",
      "type": "function"
    },
    {
      "constant": true,
      "inputs": [],
      "name": "getBlockOfPurchase",
      "outputs": [
        {
          "name": "",
          "type": "uint256"
        }
      ],
      "payable": false,
      "stateMutability": "view",
      "type": "function"
    },
    {
      "constant": true,
      "inputs": [],
      "name": "getClaimWindowsPerAdjustment",
      "outputs": [
        {
          "name": "",
          "type": "uint256"
        }
      ],
      "payable": false,
      "stateMutability": "view",
      "type": "function"
    },
    {
      "constant": true,
      "inputs": [],
      "name": "getLastAdjustmentBlockNumber",
      "outputs": [
        {
          "name": "",
          "type": "uint256"
        }
      ],
      "payable": false,
      "stateMutability": "view",
      "type": "function"
    },
    {
      "constant": true,
      "inputs": [],
      "name": "getCurrentPenalty",
      "outputs": [
        {
          "name": "",
          "type": "uint256"
        }
      ],
      "payable": false,
      "stateMutability": "view",
      "type": "function"
    },
    {
      "constant": true,
      "inputs": [
        {
          "name": "hodler",
          "type": "address"
        }
      ],
      "name": "getLockedWeiDai",
      "outputs": [
        {
          "name": "",
          "type": "uint256"
        }
      ],
      "payable": false,
      "stateMutability": "view",
      "type": "function"
    },
    {
      "constant": true,
      "inputs": [
        {
          "name": "holder",
          "type": "address"
        },
        {
          "name": "version",
          "type": "uint256"
        }
      ],
      "name": "versionedLockedWeiDai",
      "outputs": [
        {
          "name": "",
          "type": "uint256"
        }
      ],
      "payable": false,
      "stateMutability": "view",
      "type": "function"
    },
    {
      "constant": false,
      "inputs": [
        {
          "name": "dai",
          "type": "uint256"
        },
        {
          "name": "split",
          "type": "uint256"
        }
      ],
      "name": "buyWeiDai",
      "outputs": [],
      "payable": false,
      "stateMutability": "nonpayable",
      "type": "function"
    },
    {
      "constant": false,
      "inputs": [
        {
          "name": "delegate",
          "type": "address"
        },
        {
          "name": "rewardPercentage",
          "type": "uint256"
        }
      ],
      "name": "setClaimDelegate",
      "outputs": [],
      "payable": false,
      "stateMutability": "nonpayable",
      "type": "function"
    },
    {
      "constant": false,
      "inputs": [
        {
          "name": "delegate",
          "type": "address"
        }
      ],
      "name": "disableClaimDelegate",
      "outputs": [],
      "payable": false,
      "stateMutability": "nonpayable",
      "type": "function"
    },
    {
      "constant": false,
      "inputs": [],
      "name": "claimWeiDai",
      "outputs": [],
      "payable": false,
      "stateMutability": "nonpayable",
      "type": "function"
    },
    {
      "constant": false,
      "inputs": [
        {
          "name": "recipient",
          "type": "address"
        }
      ],
      "name": "claimWeiDaiFor",
      "outputs": [],
      "payable": false,
      "stateMutability": "nonpayable",
      "type": "function"
    },
    {
      "constant": true,
      "inputs": [
        {
          "name": "holder",
          "type": "address"
        },
        {
          "name": "blockNumber",
          "type": "uint256"
        }
      ],
      "name": "calculateCurrentPenalty",
      "outputs": [
        {
          "name": "",
          "type": "uint256"
        }
      ],
      "payable": false,
      "stateMutability": "view",
      "type": "function"
    },
    {
      "constant": true,
      "inputs": [],
      "name": "getClaimWaitWindow",
      "outputs": [
        {
          "name": "",
          "type": "uint256"
        }
      ],
      "payable": false,
      "stateMutability": "view",
      "type": "function"
    },
    {
      "constant": false,
      "inputs": [
        {
          "name": "split",
          "type": "uint256"
        }
      ],
      "name": "setDonationSplit",
      "outputs": [],
      "payable": false,
      "stateMutability": "nonpayable",
      "type": "function"
    },
    {
      "constant": true,
      "inputs": [
        {
          "name": "user",
          "type": "address"
        }
      ],
      "name": "getDonationSplit",
      "outputs": [
        {
          "name": "",
          "type": "uint256"
        }
      ],
      "payable": false,
      "stateMutability": "view",
      "type": "function"
    }
  ],
  "bytecode": "0x608060405234801561001057600080fd5b50336000806101000a81548173ffffffffffffffffffffffffffffffffffffffff021916908373ffffffffffffffffffffffffffffffffffffffff1602179055507f4101e71e974f68df5e9730cc223280b41654676bbb052cdcc735c3337e64d2d96000809054906101000a900473ffffffffffffffffffffffffffffffffffffffff16604051808273ffffffffffffffffffffffffffffffffffffffff1673ffffffffffffffffffffffffffffffffffffffff16815260200191505060405180910390a1600160028190555042600581905550600a600381905550612710806100fb6000396000f3fe608060405234801561001057600080fd5b50600436106101375760003560e01c80639a03d773116100b8578063c1735d491161007c578063c1735d49146104a8578063c6dbdf61146104ec578063d002409914610536578063e64d45751461056e578063f13b177e1461058c578063f51c3e0a146105e457610137565b80639a03d773146103745780639add1ad114610392578063a792221c146103c0578063ad8843bb14610422578063adc9cdde1461047a57610137565b80636cf0ad4b116100ff5780636cf0ad4b1461026c5780637436b221146102c45780638a8f8784146102ce5780638fe611e01461031257806392086af81461035657610137565b8063048cd7201461013c5780631ba4296e1461019e5780632348238c146101bc5780633e77e41f146102005780635de155fc1461021e575b600080fd5b6101886004803603604081101561015257600080fd5b81019080803573ffffffffffffffffffffffffffffffffffffffff16906020019092919080359060200190929190505050610602565b6040518082815260200191505060405180910390f35b6101a661071e565b6040518082815260200191505060405180910390f35b6101fe600480360360208110156101d257600080fd5b81019080803573ffffffffffffffffffffffffffffffffffffffff169060200190929190505050610728565b005b610208610882565b6040518082815260200191505060405180910390f35b61026a6004803603604081101561023457600080fd5b81019080803573ffffffffffffffffffffffffffffffffffffffff1690602001909291908035906020019092919050505061088f565b005b6102ae6004803603602081101561028257600080fd5b81019080803573ffffffffffffffffffffffffffffffffffffffff169060200190929190505050610b22565b6040518082815260200191505060405180910390f35b6102cc610b6b565b005b610310600480360360208110156102e457600080fd5b81019080803573ffffffffffffffffffffffffffffffffffffffff169060200190929190505050610d77565b005b6103546004803603602081101561032857600080fd5b81019080803573ffffffffffffffffffffffffffffffffffffffff169060200190929190505050610fac565b005b61035e611049565b6040518082815260200191505060405180910390f35b61037c611053565b6040518082815260200191505060405180910390f35b6103be600480360360208110156103a857600080fd5b810190808035906020019092919050505061105d565b005b61040c600480360360408110156103d657600080fd5b81019080803573ffffffffffffffffffffffffffffffffffffffff1690602001909291908035906020019092919050505061115d565b6040518082815260200191505060405180910390f35b6104646004803603602081101561043857600080fd5b81019080803573ffffffffffffffffffffffffffffffffffffffff1690602001909291905050506112cc565b6040518082815260200191505060405180910390f35b6104a66004803603602081101561049057600080fd5b8101908080359060200190929190505050611369565b005b6104ea600480360360208110156104be57600080fd5b81019080803573ffffffffffffffffffffffffffffffffffffffff169060200190929190505050611526565b005b6104f46116dd565b604051808273ffffffffffffffffffffffffffffffffffffffff1673ffffffffffffffffffffffffffffffffffffffff16815260200191505060405180910390f35b61056c6004803603604081101561054c57600080fd5b810190808035906020019092919080359060200190929190505050611706565b005b610576611d0d565b6040518082815260200191505060405180910390f35b6105ce600480360360208110156105a257600080fd5b81019080803573ffffffffffffffffffffffffffffffffffffffff169060200190929190505050611d17565b6040518082815260200191505060405180910390f35b6105ec611d60565b6040518082815260200191505060405180910390f35b600080600960008573ffffffffffffffffffffffffffffffffffffffff1673ffffffffffffffffffffffffffffffffffffffff1681526020019081526020016000205414156106545760009050610718565b60006106f9600960008673ffffffffffffffffffffffffffffffffffffffff1673ffffffffffffffffffffffffffffffffffffffff168152602001908152602001600020546106eb600a60008873ffffffffffffffffffffffffffffffffffffffff1673ffffffffffffffffffffffffffffffffffffffff1681526020019081526020016000205486611da790919063ffffffff16565b611dc790919063ffffffff16565b90506014811061070d576000915050610718565b806005026064039150505b92915050565b6000600454905090565b6000809054906101000a900473ffffffffffffffffffffffffffffffffffffffff1673ffffffffffffffffffffffffffffffffffffffff163373ffffffffffffffffffffffffffffffffffffffff161461078157600080fd5b600073ffffffffffffffffffffffffffffffffffffffff168173ffffffffffffffffffffffffffffffffffffffff1614156107bb57600080fd5b806000806101000a81548173ffffffffffffffffffffffffffffffffffffffff021916908373ffffffffffffffffffffffffffffffffffffffff1602179055507f4101e71e974f68df5e9730cc223280b41654676bbb052cdcc735c3337e64d2d96000809054906101000a900473ffffffffffffffffffffffffffffffffffffffff16604051808273ffffffffffffffffffffffffffffffffffffffff1673ffffffffffffffffffffffffffffffffffffffff16815260200191505060405180910390a150565b6000601460025402905090565b600073ffffffffffffffffffffffffffffffffffffffff16600160009054906101000a900473ffffffffffffffffffffffffffffffffffffffff1673ffffffffffffffffffffffffffffffffffffffff16141580156109cd5750600160009054906101000a900473ffffffffffffffffffffffffffffffffffffffff1673ffffffffffffffffffffffffffffffffffffffff1663e522aeb7336040518263ffffffff1660e01b8152600401808273ffffffffffffffffffffffffffffffffffffffff1673ffffffffffffffffffffffffffffffffffffffff16815260200191505060206040518083038186803b15801561098857600080fd5b505afa15801561099c573d6000803e3d6000fd5b505050506040513d60208110156109b257600080fd5b81019080805190602001909291905050506109cb611ded565b145b610a3f576040517f08c379a00000000000000000000000000000000000000000000000000000000081526004018080602001828103825260108152602001807f76657273696f6e206d69736d617463680000000000000000000000000000000081525060200191505060405180910390fd5b612710811115610a9a576040517f08c379a000000000000000000000000000000000000000000000000000000000815260040180806020018281038252603d8152602001806126a8603d913960400191505060405180910390fd5b60018101600c60003373ffffffffffffffffffffffffffffffffffffffff1673ffffffffffffffffffffffffffffffffffffffff16815260200190815260200160002060008473ffffffffffffffffffffffffffffffffffffffff1673ffffffffffffffffffffffffffffffffffffffff168152602001908152602001600020819055505050565b6000600860008373ffffffffffffffffffffffffffffffffffffffff1673ffffffffffffffffffffffffffffffffffffffff168152602001908152602001600020549050919050565b600073ffffffffffffffffffffffffffffffffffffffff16600160009054906101000a900473ffffffffffffffffffffffffffffffffffffffff1673ffffffffffffffffffffffffffffffffffffffff1614158015610ca95750600160009054906101000a900473ffffffffffffffffffffffffffffffffffffffff1673ffffffffffffffffffffffffffffffffffffffff1663e522aeb7336040518263ffffffff1660e01b8152600401808273ffffffffffffffffffffffffffffffffffffffff1673ffffffffffffffffffffffffffffffffffffffff16815260200191505060206040518083038186803b158015610c6457600080fd5b505afa158015610c78573d6000803e3d6000fd5b505050506040513d6020811015610c8e57600080fd5b8101908080519060200190929190505050610ca7611ded565b145b610d1b576040517f08c379a00000000000000000000000000000000000000000000000000000000081526004018080602001828103825260108152602001807f76657273696f6e206d69736d617463680000000000000000000000000000000081525060200191505060405180910390fd5b6000600860003373ffffffffffffffffffffffffffffffffffffffff1673ffffffffffffffffffffffffffffffffffffffff168152602001908152602001600020541415610d6857610d75565b610d7433600080611ece565b5b565b600073ffffffffffffffffffffffffffffffffffffffff16600160009054906101000a900473ffffffffffffffffffffffffffffffffffffffff1673ffffffffffffffffffffffffffffffffffffffff1614158015610eb55750600160009054906101000a900473ffffffffffffffffffffffffffffffffffffffff1673ffffffffffffffffffffffffffffffffffffffff1663e522aeb7336040518263ffffffff1660e01b8152600401808273ffffffffffffffffffffffffffffffffffffffff1673ffffffffffffffffffffffffffffffffffffffff16815260200191505060206040518083038186803b158015610e7057600080fd5b505afa158015610e84573d6000803e3d6000fd5b505050506040513d6020811015610e9a57600080fd5b8101908080519060200190929190505050610eb3611ded565b145b610f27576040517f08c379a00000000000000000000000000000000000000000000000000000000081526004018080602001828103825260108152602001807f76657273696f6e206d69736d617463680000000000000000000000000000000081525060200191505060405180910390fd5b6000600c60003373ffffffffffffffffffffffffffffffffffffffff1673ffffffffffffffffffffffffffffffffffffffff16815260200190815260200160002060008373ffffffffffffffffffffffffffffffffffffffff1673ffffffffffffffffffffffffffffffffffffffff1681526020019081526020016000208190555050565b6000809054906101000a900473ffffffffffffffffffffffffffffffffffffffff1673ffffffffffffffffffffffffffffffffffffffff163373ffffffffffffffffffffffffffffffffffffffff161461100557600080fd5b80600160006101000a81548173ffffffffffffffffffffffffffffffffffffffff021916908373ffffffffffffffffffffffffffffffffffffffff16021790555050565b6000600354905090565b6000600754905090565b6000809054906101000a900473ffffffffffffffffffffffffffffffffffffffff1673ffffffffffffffffffffffffffffffffffffffff163373ffffffffffffffffffffffffffffffffffffffff16146110b657600080fd5b600a600660009054906101000a900460ff1660ff1610611121576040517f08c379a00000000000000000000000000000000000000000000000000000000081526004018080602001828103825260338152602001806126756033913960400191505060405180910390fd5b806003819055506006600081819054906101000a900460ff168092919060010191906101000a81548160ff021916908360ff1602179055505050565b6000600160009054906101000a900473ffffffffffffffffffffffffffffffffffffffff1673ffffffffffffffffffffffffffffffffffffffff1663d814d6bc836040518263ffffffff1660e01b81526004018082815260200191505060206040518083038186803b1580156111d257600080fd5b505afa1580156111e6573d6000803e3d6000fd5b505050506040513d60208110156111fc57600080fd5b810190808051906020019092919050505073ffffffffffffffffffffffffffffffffffffffff16636cf0ad4b846040518263ffffffff1660e01b8152600401808273ffffffffffffffffffffffffffffffffffffffff1673ffffffffffffffffffffffffffffffffffffffff16815260200191505060206040518083038186803b15801561128957600080fd5b505afa15801561129d573d6000803e3d6000fd5b505050506040513d60208110156112b357600080fd5b8101908080519060200190929190505050905092915050565b600080600b60008473ffffffffffffffffffffffffffffffffffffffff1673ffffffffffffffffffffffffffffffffffffffff16815260200190815260200160002054141561131e57600a9050611364565b6001600b60008473ffffffffffffffffffffffffffffffffffffffff1673ffffffffffffffffffffffffffffffffffffffff168152602001908152602001600020540390505b919050565b600073ffffffffffffffffffffffffffffffffffffffff16600160009054906101000a900473ffffffffffffffffffffffffffffffffffffffff1673ffffffffffffffffffffffffffffffffffffffff16141580156114a75750600160009054906101000a900473ffffffffffffffffffffffffffffffffffffffff1673ffffffffffffffffffffffffffffffffffffffff1663e522aeb7336040518263ffffffff1660e01b8152600401808273ffffffffffffffffffffffffffffffffffffffff1673ffffffffffffffffffffffffffffffffffffffff16815260200191505060206040518083038186803b15801561146257600080fd5b505afa158015611476573d6000803e3d6000fd5b505050506040513d602081101561148c57600080fd5b81019080805190602001909291905050506114a5611ded565b145b611519576040517f08c379a00000000000000000000000000000000000000000000000000000000081526004018080602001828103825260108152602001807f76657273696f6e206d69736d617463680000000000000000000000000000000081525060200191505060405180910390fd5b61152333826122c8565b50565b600160009054906101000a900473ffffffffffffffffffffffffffffffffffffffff1673ffffffffffffffffffffffffffffffffffffffff163373ffffffffffffffffffffffffffffffffffffffff1614806115fe57506000600c60008373ffffffffffffffffffffffffffffffffffffffff1673ffffffffffffffffffffffffffffffffffffffff16815260200190815260200160002060003373ffffffffffffffffffffffffffffffffffffffff1673ffffffffffffffffffffffffffffffffffffffff16815260200190815260200160002054115b611653576040517f08c379a00000000000000000000000000000000000000000000000000000000081526004018080602001828103825260558152602001806125fb6055913960600191505060405180910390fd5b6116da8133600c60008573ffffffffffffffffffffffffffffffffffffffff1673ffffffffffffffffffffffffffffffffffffffff16815260200190815260200160002060003373ffffffffffffffffffffffffffffffffffffffff1673ffffffffffffffffffffffffffffffffffffffff16815260200190815260200160002054611ece565b50565b60008060009054906101000a900473ffffffffffffffffffffffffffffffffffffffff16905090565b600073ffffffffffffffffffffffffffffffffffffffff16600160009054906101000a900473ffffffffffffffffffffffffffffffffffffffff1673ffffffffffffffffffffffffffffffffffffffff16141580156118445750600160009054906101000a900473ffffffffffffffffffffffffffffffffffffffff1673ffffffffffffffffffffffffffffffffffffffff1663e522aeb7336040518263ffffffff1660e01b8152600401808273ffffffffffffffffffffffffffffffffffffffff1673ffffffffffffffffffffffffffffffffffffffff16815260200191505060206040518083038186803b1580156117ff57600080fd5b505afa158015611813573d6000803e3d6000fd5b505050506040513d602081101561182957600080fd5b8101908080519060200190929190505050611842611ded565b145b6118b6576040517f08c379a00000000000000000000000000000000000000000000000000000000081526004018080602001828103825260108152602001807f76657273696f6e206d69736d617463680000000000000000000000000000000081525060200191505060405180910390fd5b600073ffffffffffffffffffffffffffffffffffffffff16600160009054906101000a900473ffffffffffffffffffffffffffffffffffffffff1673ffffffffffffffffffffffffffffffffffffffff16141580156119c65750600160009054906101000a900473ffffffffffffffffffffffffffffffffffffffff1673ffffffffffffffffffffffffffffffffffffffff1663c783034c611956611ded565b6040518263ffffffff1660e01b81526004018082815260200191505060206040518083038186803b15801561198a57600080fd5b505afa15801561199e573d6000803e3d6000fd5b505050506040513d60208110156119b457600080fd5b81019080805190602001909291905050505b611a38576040517f08c379a00000000000000000000000000000000000000000000000000000000081526004018080602001828103825260108152602001807f76657273696f6e2064697361626c65640000000000000000000000000000000081525060200191505060405180910390fd5b6000600860003373ffffffffffffffffffffffffffffffffffffffff1673ffffffffffffffffffffffffffffffffffffffff1681526020019081526020016000205414611ad0576040517f08c379a00000000000000000000000000000000000000000000000000000000081526004018080602001828103825260258152602001806126506025913960400191505060405180910390fd5b611ada33826122c8565b6000611b8a611ae761236c565b73ffffffffffffffffffffffffffffffffffffffff1663f728ff326040518163ffffffff1660e01b815260040160206040518083038186803b158015611b2c57600080fd5b505afa158015611b40573d6000803e3d6000fd5b505050506040513d6020811015611b5657600080fd5b8101908080519060200190929190505050611b7c6127108661242890919063ffffffff16565b611dc790919063ffffffff16565b9050611b9461236c565b73ffffffffffffffffffffffffffffffffffffffff1663dfe5ef483383866040518463ffffffff1660e01b8152600401808473ffffffffffffffffffffffffffffffffffffffff1673ffffffffffffffffffffffffffffffffffffffff1681526020018381526020018281526020019350505050600060405180830381600087803b158015611c2257600080fd5b505af1158015611c36573d6000803e3d6000fd5b5050505080600860003373ffffffffffffffffffffffffffffffffffffffff1673ffffffffffffffffffffffffffffffffffffffff16815260200190815260200160002081905550600254600960003373ffffffffffffffffffffffffffffffffffffffff1673ffffffffffffffffffffffffffffffffffffffff1681526020019081526020016000208190555043600a60003373ffffffffffffffffffffffffffffffffffffffff1673ffffffffffffffffffffffffffffffffffffffff16815260200190815260200160002081905550505050565b6000600254905090565b6000600960008373ffffffffffffffffffffffffffffffffffffffff1673ffffffffffffffffffffffffffffffffffffffff168152602001908152602001600020549050919050565b6000600a60003373ffffffffffffffffffffffffffffffffffffffff1673ffffffffffffffffffffffffffffffffffffffff16815260200190815260200160002054905090565b600082821115611db657600080fd5b600082840390508091505092915050565b6000808211611dd557600080fd5b6000828481611de057fe5b0490508091505092915050565b6000600160009054906101000a900473ffffffffffffffffffffffffffffffffffffffff1673ffffffffffffffffffffffffffffffffffffffff1663c4b9d89d306040518263ffffffff1660e01b8152600401808273ffffffffffffffffffffffffffffffffffffffff1673ffffffffffffffffffffffffffffffffffffffff16815260200191505060206040518083038186803b158015611e8e57600080fd5b505afa158015611ea2573d6000803e3d6000fd5b505050506040513d6020811015611eb857600080fd5b8101908080519060200190929190505050905090565b6000611ed984612462565b90506000600860008673ffffffffffffffffffffffffffffffffffffffff1673ffffffffffffffffffffffffffffffffffffffff1681526020019081526020016000205490506000811415611f2f5750506122c3565b6000821415611f67576000606482029050600754816007540113611f5557600754611f5b565b80600754015b6007819055505061207d565b6000611f8f6064611f81848661242890919063ffffffff16565b611dc790919063ffffffff16565b905060008383029050611fab8284611da790919063ffffffff16565b92506000309050611fba612475565b73ffffffffffffffffffffffffffffffffffffffff16639dc29fac82856040518363ffffffff1660e01b8152600401808373ffffffffffffffffffffffffffffffffffffffff1673ffffffffffffffffffffffffffffffffffffffff16815260200182815260200192505050600060405180830381600087803b15801561204057600080fd5b505af1158015612054573d6000803e3d6000fd5b5050505060075482600754031261206d57600754612073565b81600754035b6007819055505050505b612085612531565b6000600860008773ffffffffffffffffffffffffffffffffffffffff1673ffffffffffffffffffffffffffffffffffffffff1681526020019081526020016000208190555060008084116120da5760006120ec565b612710600185038302816120ea57fe5b045b9050600081830390506120fd612475565b73ffffffffffffffffffffffffffffffffffffffff1663a9059cbb88836040518363ffffffff1660e01b8152600401808373ffffffffffffffffffffffffffffffffffffffff1673ffffffffffffffffffffffffffffffffffffffff16815260200182815260200192505050602060405180830381600087803b15801561218357600080fd5b505af1158015612197573d6000803e3d6000fd5b505050506040513d60208110156121ad57600080fd5b810190808051906020019092919050505050600073ffffffffffffffffffffffffffffffffffffffff168673ffffffffffffffffffffffffffffffffffffffff16146122be576121fb612475565b73ffffffffffffffffffffffffffffffffffffffff1663a9059cbb87846040518363ffffffff1660e01b8152600401808373ffffffffffffffffffffffffffffffffffffffff1673ffffffffffffffffffffffffffffffffffffffff16815260200182815260200192505050602060405180830381600087803b15801561228157600080fd5b505af1158015612295573d6000803e3d6000fd5b505050506040513d60208110156122ab57600080fd5b8101908080519060200190929190505050505b505050505b505050565b60648110612321576040517f08c379a00000000000000000000000000000000000000000000000000000000081526004018080602001828103825260358152602001806125c66035913960400191505060405180910390fd5b60018101600b60008473ffffffffffffffffffffffffffffffffffffffff1673ffffffffffffffffffffffffffffffffffffffff168152602001908152602001600020819055505050565b6000600160009054906101000a900473ffffffffffffffffffffffffffffffffffffffff1673ffffffffffffffffffffffffffffffffffffffff1663a043417f6123b4611ded565b6040518263ffffffff1660e01b81526004018082815260200191505060206040518083038186803b1580156123e857600080fd5b505afa1580156123fc573d6000803e3d6000fd5b505050506040513d602081101561241257600080fd5b8101908080519060200190929190505050905090565b60008083141561243b576000905061245c565b600082840290508284828161244c57fe5b041461245757600080fd5b809150505b92915050565b600061246e8243610602565b9050919050565b6000600160009054906101000a900473ffffffffffffffffffffffffffffffffffffffff1673ffffffffffffffffffffffffffffffffffffffff16631dd1f9336124bd611ded565b6040518263ffffffff1660e01b81526004018082815260200191505060206040518083038186803b1580156124f157600080fd5b505afa158015612505573d6000803e3d6000fd5b505050506040513d602081101561251b57600080fd5b8101908080519060200190929190505050905090565b6125396125a0565b1561259e57600060075413156125605760026000815480929190600101919050555061258e565b6000600754121561258d5760006001600254031461258357600160025403612586565b60015b6002819055505b5b6000600781905550436004819055505b565b6000806004544303905060006003546125b7610882565b02905080821015925050509056fe73706c6974206973206120252065787072657373656420617320616e20696e7465676572206265747765656e203020616e64203939636c61696d466f722064697361626c656420666f72207468697320757365723a20726563697069656e74206d75737420696e766f6b652074686520736574436c61696d44656c65676174652066756e6374696f6e2e6d75737420636c61696d20776569646169206265666f726520627579696e67206d6f72652e636c61696d57696e646f777341646a7573746d656e742063616e206f6e6c7920626520616c74657265642031302074696d6573726577617264206d75737420626520252065787072657373656420617320616e20696e7465676572206265747765656e203020616e642031302c303030a165627a7a723058203bf8bbe5380e4882e83331444520e05f461fddcda87175b9b60bd126e5ad20230029",
  "source": "pragma solidity >=0.5.0 <0.6.0;\nimport \"../node_modules/openzeppelin-solidity/contracts/ownership/Secondary.sol\";\nimport \"../node_modules/openzeppelin-solidity/contracts/math/SafeMath.sol\";\nimport \"../node_modules/openzeppelin-solidity/contracts/token/ERC20/ERC20.sol\";\nimport \"./WeiDaiBank.sol\";\nimport \"./WeiDai.sol\";\nimport \"./baseContracts/Versioned.sol\";\n\ncontract PatienceRegulationEngine is Secondary, Versioned {\n\tuint marginalPenaltyDrawdownPeriod; //aka mining difficulty\n\tuint claimWindowsPerAdjustment;\n\tuint lastAdjustmentBlock;\n\tuint launchTimeStamp;\n\tuint8 claimWindowsAdjustments;\n\tint currentAdjustmentWeight;\n\tmapping(address=>uint) lockedWeiDai;\n\tmapping (address=>uint) penaltyDrawdownPeriod;\n\tmapping (address=>uint) blockOfPurchase;\n\tmapping (address=>uint) donationBurnSplit;\n\tmapping (address => mapping (address=> uint)) claimDelegateReward;\n\n\tusing SafeMath for uint;\n\n\tconstructor () public {\n\t\tmarginalPenaltyDrawdownPeriod = 1;\n\t\tlaunchTimeStamp = block.timestamp;\n\t\tclaimWindowsPerAdjustment = 10;\n\t}\n\n\tfunction setClaimWindowsPerAdjustment(uint c) public onlyPrimary {\n\t\trequire(claimWindowsAdjustments < 10, \"claimWindowsAdjustment can only be altered 10 times\");\n\t\tclaimWindowsPerAdjustment = c;\n\t\tclaimWindowsAdjustments++;\n\t}\n\n\tfunction getPenaltyDrawdownPeriodForHolder(address holder) public view returns (uint){\n\t\treturn penaltyDrawdownPeriod[holder];\n\t}\n\n\tfunction getCurrentAdjustmentWeight() public view returns (int) {\n\t\treturn currentAdjustmentWeight;\n\t}\n\n\tfunction getBlockOfPurchase() public view returns (uint) {\n\t\treturn blockOfPurchase[msg.sender];\n\t}\n\n\tfunction getClaimWindowsPerAdjustment() public view returns (uint) {\n\t\treturn claimWindowsPerAdjustment;\n\t}\n\n\tfunction getLastAdjustmentBlockNumber() public view returns (uint) {\n\t\treturn lastAdjustmentBlock;\n\t}\n\n\tfunction getCurrentPenalty() public view returns (uint) {\n\t\treturn marginalPenaltyDrawdownPeriod;\n\t}\n\n\tfunction getLockedWeiDai(address hodler) public view returns (uint) {\n\t\treturn lockedWeiDai[hodler];\n\t}\n\n\tfunction versionedLockedWeiDai(address holder, uint version) public view returns (uint){\n\t\treturn PatienceRegulationEngine(WeiDaiVersionController(versionController).getPRE(version)).getLockedWeiDai(holder);\n\t}\n\n\tfunction buyWeiDai(uint dai, uint split) public versionMatch enabledOnly {\n\t\trequire(lockedWeiDai[msg.sender] == 0,\"must claim weidai before buying more.\");\n\t\tsetDonationSplit(msg.sender,split);\n\t\tuint weiDaiToBuy = dai.mul(10000).div(WeiDaiBank(getWeiDaiBank()).daiPerMyriadWeidai());\n\n\t\tWeiDaiBank(getWeiDaiBank()).issue(msg.sender, weiDaiToBuy, dai);\n\t\tlockedWeiDai[msg.sender] = weiDaiToBuy;\n\t\tpenaltyDrawdownPeriod[msg.sender] = marginalPenaltyDrawdownPeriod;\n\t\tblockOfPurchase[msg.sender] = block.number;\n\t}\n\n\tfunction setClaimDelegate(address delegate, uint rewardPercentage) public versionMatch {\n\t\trequire(rewardPercentage<=10000, \"reward must be % expressed as an integer between 0 and 10,000\");\n\t\tclaimDelegateReward[msg.sender][delegate] = rewardPercentage + 1;\n\t}\n\n\tfunction disableClaimDelegate(address delegate) public versionMatch {\n\t\tclaimDelegateReward[msg.sender][delegate] = 0;\n\t}\n\n\tfunction claimWeiDai() public versionMatch {\n\t\tif(lockedWeiDai[msg.sender] == 0)\n\t\t    return;\n\t\tclaim(msg.sender, address(0), 0);\n\t}\n\n\tfunction claimWeiDaiFor(address recipient) public {\n\t\trequire(msg.sender == versionController || claimDelegateReward[recipient][msg.sender]>0, \"claimFor disabled for this user: recipient must invoke the setClaimDelegate function.\");\n\t\tclaim(recipient, msg.sender, claimDelegateReward[recipient][msg.sender]);\n\t}\n\n\tfunction claim(address recipient, address delegate, uint reward) private {\n\t\tuint penalty = calculateCurrentPenalty(recipient);\n\t\tuint weiDai = lockedWeiDai[recipient];\n\t\tif(weiDai == 0)\n\t\t\treturn;\n\t\tif(penalty==0)\n\t\t{\n\t\t\tint adjustment = int(weiDai * 100);\n\t\t\tcurrentAdjustmentWeight = currentAdjustmentWeight+adjustment>currentAdjustmentWeight?currentAdjustmentWeight+adjustment:currentAdjustmentWeight; //handle overflow\n\t\t}\n\t\telse\n\t\t{\n\t\t\tuint penaltyTax = penalty.mul(weiDai).div(100); //div 100 turns penalty into a %\n\t\t\tint adjustment = int(weiDai * penalty);\n\t\t\tweiDai = weiDai.sub(penaltyTax);\n\n\t\t\taddress self = address(this);\n\t\t\tWeiDai(getWeiDai()).burn(self, penaltyTax);\n\n\t\t\tcurrentAdjustmentWeight = currentAdjustmentWeight-adjustment<currentAdjustmentWeight?currentAdjustmentWeight-adjustment:currentAdjustmentWeight; //handle underflow\n\t\t}\n\t\tadjustPatienceDifficulty();\n\t\tlockedWeiDai[recipient] = 0;\n\t\tuint delegateWeiDai = reward > 0? (weiDai * (reward-1))/10000 : 0;\n\t\tuint recipientWeiDai = weiDai - delegateWeiDai;\n\n\t\tWeiDai(getWeiDai()).transfer(recipient, recipientWeiDai);\n\t\tif(delegate != address(0)){\n\t\t\tWeiDai(getWeiDai()).transfer(delegate, delegateWeiDai);\n\t\t}\n\t}\n\n\tfunction calculateCurrentPenalty(address holder) private view returns (uint) {\n\t\treturn calculateCurrentPenalty(holder, block.number);\n\t}\n\n\tfunction calculateCurrentPenalty (address holder, uint blockNumber) public view returns (uint) {\n\t\tif(penaltyDrawdownPeriod[holder]==0)\n\t\t\treturn 0;\n\t\tuint periods = (blockNumber.sub(blockOfPurchase[holder])).div(penaltyDrawdownPeriod[holder]);\n\t\tif(periods >= 20)\n\t\t    return 0;\n\t\treturn 100 - (5 * periods);\n\t}\n\n\tfunction adjustPatienceDifficulty() private {\n\t\tif(nextPatienceAdjustment()){\n\t\t\tif(currentAdjustmentWeight > 0)\n\t\t\t\tmarginalPenaltyDrawdownPeriod++;\n\t\t\telse if(currentAdjustmentWeight < 0)\n\t\t\t\tmarginalPenaltyDrawdownPeriod = marginalPenaltyDrawdownPeriod-1==0?1:marginalPenaltyDrawdownPeriod-1;\n\n\t\t\tcurrentAdjustmentWeight = 0;\n\t\t\tlastAdjustmentBlock = block.number;\n\t\t}\n\t}\n\n\tfunction nextPatienceAdjustment() private view returns (bool) {\n\t\tuint durationSinceLastAdjustment = block.number - lastAdjustmentBlock;\n\t\tuint patienceAdjustmentDuration = getClaimWaitWindow() * claimWindowsPerAdjustment;\n\t\treturn durationSinceLastAdjustment >= patienceAdjustmentDuration;\n\t}\n\n\tfunction getClaimWaitWindow() public view returns (uint) {\n\t\treturn marginalPenaltyDrawdownPeriod * 20;\n\t}\n\n\tfunction setDonationSplit(uint split) public versionMatch {\n\t\tsetDonationSplit(msg.sender,split);\n\t}\n\n\tfunction setDonationSplit(address user, uint split) private {\n\t\trequire(split<100, \"split is a % expressed as an integer between 0 and 99\");\n\t\tdonationBurnSplit[user] = split + 1;\n\t}\n\n\tfunction getDonationSplit(address user) public view returns (uint) {\n\t\tif(donationBurnSplit[user]==0)\n\t\t\treturn 10; //defaults to 10%\n\t\treturn donationBurnSplit[user]-1;\n\t}\n}",
  "sourcePath": "/home/justin/weidai ecosystem/weidai/contracts/PatienceRegulationEngine.sol",
  "compiler": {
    "name": "solc",
    "version": "0.5.7+commit.6da8b019.Emscripten.clang"
  },
  "schemaVersion": "3.0.23",
  "updatedAt": "2020-02-06T08:19:00.449Z",
  "networkType": "ethereum",
  "devdoc": {
    "methods": {
      "primary()": {
        "return": "the address of the primary."
      },
      "transferPrimary(address)": {
        "details": "Transfers contract to a new primary.",
        "params": {
          "recipient": "The address of new primary."
        }
      }
    }
  },
  "userdoc": {
    "methods": {}
  }
}