{
  "contractName": "WeiDaiBank",
  "abi": [
    {
      "constant": false,
      "inputs": [
        {
          "name": "recipient",
          "type": "address"
        }
      ],
      "name": "transferPrimary",
      "outputs": [],
      "payable": false,
      "stateMutability": "nonpayable",
      "type": "function"
    },
    {
      "constant": false,
      "inputs": [
        {
          "name": "controller",
          "type": "address"
        }
      ],
      "name": "setVersionController",
      "outputs": [],
      "payable": false,
      "stateMutability": "nonpayable",
      "type": "function"
    },
    {
      "constant": true,
      "inputs": [],
      "name": "primary",
      "outputs": [
        {
          "name": "",
          "type": "address"
        }
      ],
      "payable": false,
      "stateMutability": "view",
      "type": "function"
    },
    {
      "inputs": [],
      "payable": false,
      "stateMutability": "nonpayable",
      "type": "constructor"
    },
    {
      "anonymous": false,
      "inputs": [
        {
          "indexed": false,
          "name": "recipient",
          "type": "address"
        }
      ],
      "name": "PrimaryTransferred",
      "type": "event"
    },
    {
      "constant": false,
      "inputs": [
        {
          "name": "donation",
          "type": "address"
        }
      ],
      "name": "setDonationAddress",
      "outputs": [],
      "payable": false,
      "stateMutability": "nonpayable",
      "type": "function"
    },
    {
      "constant": false,
      "inputs": [
        {
          "name": "r",
          "type": "address"
        }
      ],
      "name": "setReserveAddress",
      "outputs": [],
      "payable": false,
      "stateMutability": "nonpayable",
      "type": "function"
    },
    {
      "constant": true,
      "inputs": [],
      "name": "getDonationAddress",
      "outputs": [
        {
          "name": "",
          "type": "address"
        }
      ],
      "payable": false,
      "stateMutability": "view",
      "type": "function"
    },
    {
      "constant": true,
      "inputs": [],
      "name": "daiBalance",
      "outputs": [
        {
          "name": "",
          "type": "uint256"
        }
      ],
      "payable": false,
      "stateMutability": "view",
      "type": "function"
    },
    {
      "constant": true,
      "inputs": [],
      "name": "daiPerMyriadWeidai",
      "outputs": [
        {
          "name": "",
          "type": "uint256"
        }
      ],
      "payable": false,
      "stateMutability": "view",
      "type": "function"
    },
    {
      "constant": false,
      "inputs": [
        {
          "name": "sender",
          "type": "address"
        },
        {
          "name": "weidai",
          "type": "uint256"
        },
        {
          "name": "dai",
          "type": "uint256"
        }
      ],
      "name": "issue",
      "outputs": [],
      "payable": false,
      "stateMutability": "nonpayable",
      "type": "function"
    },
    {
      "constant": false,
      "inputs": [
        {
          "name": "delegate",
          "type": "address"
        },
        {
          "name": "rewardPercentage",
          "type": "uint256"
        }
      ],
      "name": "setClaimDelegate",
      "outputs": [],
      "payable": false,
      "stateMutability": "nonpayable",
      "type": "function"
    },
    {
      "constant": false,
      "inputs": [
        {
          "name": "delegate",
          "type": "address"
        }
      ],
      "name": "disableClaimDelegate",
      "outputs": [],
      "payable": false,
      "stateMutability": "nonpayable",
      "type": "function"
    },
    {
      "constant": false,
      "inputs": [
        {
          "name": "weiDai",
          "type": "uint256"
        },
        {
          "name": "recipient",
          "type": "address"
        },
        {
          "name": "bankVersion",
          "type": "address"
        }
      ],
      "name": "redeemWeiDaiFor",
      "outputs": [],
      "payable": false,
      "stateMutability": "nonpayable",
      "type": "function"
    },
    {
      "constant": false,
      "inputs": [
        {
          "name": "weiDai",
          "type": "uint256"
        }
      ],
      "name": "redeemWeiDai",
      "outputs": [],
      "payable": false,
      "stateMutability": "nonpayable",
      "type": "function"
    },
    {
      "constant": false,
      "inputs": [
        {
          "name": "weiDai",
          "type": "uint256"
        },
        {
          "name": "recipient",
          "type": "address"
        },
        {
          "name": "delegate",
          "type": "address"
        },
        {
          "name": "reward",
          "type": "uint256"
        }
      ],
      "name": "redeem",
      "outputs": [],
      "payable": false,
      "stateMutability": "nonpayable",
      "type": "function"
    },
    {
      "constant": false,
      "inputs": [],
      "name": "withdrawDonations",
      "outputs": [],
      "payable": false,
      "stateMutability": "nonpayable",
      "type": "function"
    }
  ],
  "bytecode": "0x608060405234801561001057600080fd5b50336000806101000a81548173ffffffffffffffffffffffffffffffffffffffff021916908373ffffffffffffffffffffffffffffffffffffffff1602179055507f4101e71e974f68df5e9730cc223280b41654676bbb052cdcc735c3337e64d2d96000809054906101000a900473ffffffffffffffffffffffffffffffffffffffff16604051808273ffffffffffffffffffffffffffffffffffffffff1673ffffffffffffffffffffffffffffffffffffffff16815260200191505060405180910390a130600560006101000a81548173ffffffffffffffffffffffffffffffffffffffff021916908373ffffffffffffffffffffffffffffffffffffffff160217905550606460068190555033600260006101000a81548173ffffffffffffffffffffffffffffffffffffffff021916908373ffffffffffffffffffffffffffffffffffffffff1602179055506127a88061016e6000396000f3fe608060405234801561001057600080fd5b50600436106100f55760003560e01c80636f48e79b11610097578063c6dbdf6111610066578063c6dbdf6114610418578063ce1b088a14610462578063dfe5ef481461046c578063f728ff32146104c4576100f5565b80636f48e79b146102d45780638a8f8784146103185780638fe611e01461035c5780639f40a7b3146103a0576100f5565b80632348238c116100d35780632348238c1461018a5780634a7f263f146101ce57806354c03ab71461023c5780635de155fc14610286576100f5565b80630a2a3cf5146100fa5780630e7bb7071461012857806314673d3114610146575b600080fd5b6101266004803603602081101561011057600080fd5b81019080803590602001909291905050506104e2565b005b6101306106a2565b6040518082815260200191505060405180910390f35b6101886004803603602081101561015c57600080fd5b81019080803573ffffffffffffffffffffffffffffffffffffffff16906020019092919050505061074c565b005b6101cc600480360360208110156101a057600080fd5b81019080803573ffffffffffffffffffffffffffffffffffffffff16906020019092919050505061082a565b005b61023a600480360360608110156101e457600080fd5b8101908080359060200190929190803573ffffffffffffffffffffffffffffffffffffffff169060200190929190803573ffffffffffffffffffffffffffffffffffffffff169060200190929190505050610984565b005b610244610c0d565b604051808273ffffffffffffffffffffffffffffffffffffffff1673ffffffffffffffffffffffffffffffffffffffff16815260200191505060405180910390f35b6102d26004803603604081101561029c57600080fd5b81019080803573ffffffffffffffffffffffffffffffffffffffff16906020019092919080359060200190929190505050610c37565b005b610316600480360360208110156102ea57600080fd5b81019080803573ffffffffffffffffffffffffffffffffffffffff169060200190929190505050610eca565b005b61035a6004803603602081101561032e57600080fd5b81019080803573ffffffffffffffffffffffffffffffffffffffff169060200190929190505050610f67565b005b61039e6004803603602081101561037257600080fd5b81019080803573ffffffffffffffffffffffffffffffffffffffff16906020019092919050505061119c565b005b610416600480360360808110156103b657600080fd5b8101908080359060200190929190803573ffffffffffffffffffffffffffffffffffffffff169060200190929190803573ffffffffffffffffffffffffffffffffffffffff16906020019092919080359060200190929190505050611239565b005b6104206119a1565b604051808273ffffffffffffffffffffffffffffffffffffffff1673ffffffffffffffffffffffffffffffffffffffff16815260200191505060405180910390f35b61046a6119ca565b005b6104c26004803603606081101561048257600080fd5b81019080803573ffffffffffffffffffffffffffffffffffffffff1690602001909291908035906020019092919080359060200190929190505050611bf7565b005b6104cc61211a565b6040518082815260200191505060405180910390f35b600073ffffffffffffffffffffffffffffffffffffffff16600160009054906101000a900473ffffffffffffffffffffffffffffffffffffffff1673ffffffffffffffffffffffffffffffffffffffff16141580156106205750600160009054906101000a900473ffffffffffffffffffffffffffffffffffffffff1673ffffffffffffffffffffffffffffffffffffffff1663e522aeb7336040518263ffffffff1660e01b8152600401808273ffffffffffffffffffffffffffffffffffffffff1673ffffffffffffffffffffffffffffffffffffffff16815260200191505060206040518083038186803b1580156105db57600080fd5b505afa1580156105ef573d6000803e3d6000fd5b505050506040513d602081101561060557600080fd5b810190808051906020019092919050505061061e612319565b145b610692576040517f08c379a00000000000000000000000000000000000000000000000000000000081526004018080602001828103825260108152602001807f76657273696f6e206d69736d617463680000000000000000000000000000000081525060200191505060405180910390fd5b61069f8133600080611239565b50565b6000600460009054906101000a900473ffffffffffffffffffffffffffffffffffffffff1673ffffffffffffffffffffffffffffffffffffffff1663b69ef8a86040518163ffffffff1660e01b815260040160206040518083038186803b15801561070c57600080fd5b505afa158015610720573d6000803e3d6000fd5b505050506040513d602081101561073657600080fd5b8101908080519060200190929190505050905090565b6000809054906101000a900473ffffffffffffffffffffffffffffffffffffffff1673ffffffffffffffffffffffffffffffffffffffff163373ffffffffffffffffffffffffffffffffffffffff16146107a557600080fd5b80600360006101000a81548173ffffffffffffffffffffffffffffffffffffffff021916908373ffffffffffffffffffffffffffffffffffffffff16021790555080600460006101000a81548173ffffffffffffffffffffffffffffffffffffffff021916908373ffffffffffffffffffffffffffffffffffffffff16021790555050565b6000809054906101000a900473ffffffffffffffffffffffffffffffffffffffff1673ffffffffffffffffffffffffffffffffffffffff163373ffffffffffffffffffffffffffffffffffffffff161461088357600080fd5b600073ffffffffffffffffffffffffffffffffffffffff168173ffffffffffffffffffffffffffffffffffffffff1614156108bd57600080fd5b806000806101000a81548173ffffffffffffffffffffffffffffffffffffffff021916908373ffffffffffffffffffffffffffffffffffffffff1602179055507f4101e71e974f68df5e9730cc223280b41654676bbb052cdcc735c3337e64d2d96000809054906101000a900473ffffffffffffffffffffffffffffffffffffffff16604051808273ffffffffffffffffffffffffffffffffffffffff1673ffffffffffffffffffffffffffffffffffffffff16815260200191505060405180910390a150565b600160009054906101000a900473ffffffffffffffffffffffffffffffffffffffff1673ffffffffffffffffffffffffffffffffffffffff163373ffffffffffffffffffffffffffffffffffffffff161480610a5c57506000600760008473ffffffffffffffffffffffffffffffffffffffff1673ffffffffffffffffffffffffffffffffffffffff16815260200190815260200160002060003373ffffffffffffffffffffffffffffffffffffffff1673ffffffffffffffffffffffffffffffffffffffff16815260200190815260200160002054115b610ab1576040517f08c379a00000000000000000000000000000000000000000000000000000000081526004018080602001828103825260598152602001806126af6059913960600191505060405180910390fd5b8073ffffffffffffffffffffffffffffffffffffffff16639f40a7b3848433600760008873ffffffffffffffffffffffffffffffffffffffff1673ffffffffffffffffffffffffffffffffffffffff16815260200190815260200160002060003373ffffffffffffffffffffffffffffffffffffffff1673ffffffffffffffffffffffffffffffffffffffff168152602001908152602001600020546040518563ffffffff1660e01b8152600401808581526020018473ffffffffffffffffffffffffffffffffffffffff1673ffffffffffffffffffffffffffffffffffffffff1681526020018373ffffffffffffffffffffffffffffffffffffffff1673ffffffffffffffffffffffffffffffffffffffff168152602001828152602001945050505050600060405180830381600087803b158015610bf057600080fd5b505af1158015610c04573d6000803e3d6000fd5b50505050505050565b6000600260009054906101000a900473ffffffffffffffffffffffffffffffffffffffff16905090565b600073ffffffffffffffffffffffffffffffffffffffff16600160009054906101000a900473ffffffffffffffffffffffffffffffffffffffff1673ffffffffffffffffffffffffffffffffffffffff1614158015610d755750600160009054906101000a900473ffffffffffffffffffffffffffffffffffffffff1673ffffffffffffffffffffffffffffffffffffffff1663e522aeb7336040518263ffffffff1660e01b8152600401808273ffffffffffffffffffffffffffffffffffffffff1673ffffffffffffffffffffffffffffffffffffffff16815260200191505060206040518083038186803b158015610d3057600080fd5b505afa158015610d44573d6000803e3d6000fd5b505050506040513d6020811015610d5a57600080fd5b8101908080519060200190929190505050610d73612319565b145b610de7576040517f08c379a00000000000000000000000000000000000000000000000000000000081526004018080602001828103825260108152602001807f76657273696f6e206d69736d617463680000000000000000000000000000000081525060200191505060405180910390fd5b612710811115610e42576040517f08c379a000000000000000000000000000000000000000000000000000000000815260040180806020018281038252603d815260200180612708603d913960400191505060405180910390fd5b60018101600760003373ffffffffffffffffffffffffffffffffffffffff1673ffffffffffffffffffffffffffffffffffffffff16815260200190815260200160002060008473ffffffffffffffffffffffffffffffffffffffff1673ffffffffffffffffffffffffffffffffffffffff168152602001908152602001600020819055505050565b6000809054906101000a900473ffffffffffffffffffffffffffffffffffffffff1673ffffffffffffffffffffffffffffffffffffffff163373ffffffffffffffffffffffffffffffffffffffff1614610f2357600080fd5b80600260006101000a81548173ffffffffffffffffffffffffffffffffffffffff021916908373ffffffffffffffffffffffffffffffffffffffff16021790555050565b600073ffffffffffffffffffffffffffffffffffffffff16600160009054906101000a900473ffffffffffffffffffffffffffffffffffffffff1673ffffffffffffffffffffffffffffffffffffffff16141580156110a55750600160009054906101000a900473ffffffffffffffffffffffffffffffffffffffff1673ffffffffffffffffffffffffffffffffffffffff1663e522aeb7336040518263ffffffff1660e01b8152600401808273ffffffffffffffffffffffffffffffffffffffff1673ffffffffffffffffffffffffffffffffffffffff16815260200191505060206040518083038186803b15801561106057600080fd5b505afa158015611074573d6000803e3d6000fd5b505050506040513d602081101561108a57600080fd5b81019080805190602001909291905050506110a3612319565b145b611117576040517f08c379a00000000000000000000000000000000000000000000000000000000081526004018080602001828103825260108152602001807f76657273696f6e206d69736d617463680000000000000000000000000000000081525060200191505060405180910390fd5b6000600760003373ffffffffffffffffffffffffffffffffffffffff1673ffffffffffffffffffffffffffffffffffffffff16815260200190815260200160002060008373ffffffffffffffffffffffffffffffffffffffff1673ffffffffffffffffffffffffffffffffffffffff1681526020019081526020016000208190555050565b6000809054906101000a900473ffffffffffffffffffffffffffffffffffffffff1673ffffffffffffffffffffffffffffffffffffffff163373ffffffffffffffffffffffffffffffffffffffff16146111f557600080fd5b80600160006101000a81548173ffffffffffffffffffffffffffffffffffffffff021916908373ffffffffffffffffffffffffffffffffffffffff16021790555050565b600061124361211a565b9050600080866112516123fa565b73ffffffffffffffffffffffffffffffffffffffff166318160ddd6040518163ffffffff1660e01b815260040160206040518083038186803b15801561129657600080fd5b505afa1580156112aa573d6000803e3d6000fd5b505050506040513d60208110156112c057600080fd5b810190808051906020019092919050505003146112ea57606460028702816112e457fe5b046112ed565b60005b9050600060646112fb6124b6565b73ffffffffffffffffffffffffffffffffffffffff1663ad8843bb886040518263ffffffff1660e01b8152600401808273ffffffffffffffffffffffffffffffffffffffff1673ffffffffffffffffffffffffffffffffffffffff16815260200191505060206040518083038186803b15801561137757600080fd5b505afa15801561138b573d6000803e3d6000fd5b505050506040513d60208110156113a157600080fd5b81019080805190602001909291905050508302816113bb57fe5b0490506113c66123fa565b73ffffffffffffffffffffffffffffffffffffffff16639dc29fac87838a036040518363ffffffff1660e01b8152600401808373ffffffffffffffffffffffffffffffffffffffff1673ffffffffffffffffffffffffffffffffffffffff16815260200182815260200192505050600060405180830381600087803b15801561144e57600080fd5b505af1158015611462573d6000803e3d6000fd5b5050505061146e6123fa565b73ffffffffffffffffffffffffffffffffffffffff166323b872dd87600560009054906101000a900473ffffffffffffffffffffffffffffffffffffffff16846040518463ffffffff1660e01b8152600401808473ffffffffffffffffffffffffffffffffffffffff1673ffffffffffffffffffffffffffffffffffffffff1681526020018373ffffffffffffffffffffffffffffffffffffffff1673ffffffffffffffffffffffffffffffffffffffff1681526020018281526020019350505050602060405180830381600087803b15801561154a57600080fd5b505af115801561155e573d6000803e3d6000fd5b505050506040513d602081101561157457600080fd5b8101908080519060200190929190505050506000828803905060006115b66127106115a8878561257290919063ffffffff16565b6125ac90919063ffffffff16565b905060008090506000600460009054906101000a900473ffffffffffffffffffffffffffffffffffffffff1673ffffffffffffffffffffffffffffffffffffffff1663b69ef8a86040518163ffffffff1660e01b815260040160206040518083038186803b15801561162757600080fd5b505afa15801561163b573d6000803e3d6000fd5b505050506040513d602081101561165157600080fd5b810190808051906020019092919050505090508083116116715782611673565b805b9250600460009054906101000a900473ffffffffffffffffffffffffffffffffffffffff1673ffffffffffffffffffffffffffffffffffffffff16632e1a7d4d846040518263ffffffff1660e01b815260040180828152602001915050602060405180830381600087803b1580156116ea57600080fd5b505af11580156116fe573d6000803e3d6000fd5b505050506040513d602081101561171457600080fd5b81019080805190602001909291905050509250600073ffffffffffffffffffffffffffffffffffffffff168973ffffffffffffffffffffffffffffffffffffffff16141580156117b25750600160009054906101000a900473ffffffffffffffffffffffffffffffffffffffff1673ffffffffffffffffffffffffffffffffffffffff168973ffffffffffffffffffffffffffffffffffffffff1614155b156118ba57600088116117c65760006117d8565b612710600189038402816117d657fe5b045b91506117ed82846125d290919063ffffffff16565b92506117f76125f2565b73ffffffffffffffffffffffffffffffffffffffff1663a9059cbb8a846040518363ffffffff1660e01b8152600401808373ffffffffffffffffffffffffffffffffffffffff1673ffffffffffffffffffffffffffffffffffffffff16815260200182815260200192505050602060405180830381600087803b15801561187d57600080fd5b505af1158015611891573d6000803e3d6000fd5b505050506040513d60208110156118a757600080fd5b8101908080519060200190929190505050505b6118c26125f2565b73ffffffffffffffffffffffffffffffffffffffff1663a9059cbb8b8486036040518363ffffffff1660e01b8152600401808373ffffffffffffffffffffffffffffffffffffffff1673ffffffffffffffffffffffffffffffffffffffff16815260200182815260200192505050602060405180830381600087803b15801561194a57600080fd5b505af115801561195e573d6000803e3d6000fd5b505050506040513d602081101561197457600080fd5b81019080805190602001909291905050505061198e61211a565b6006819055505050505050505050505050565b60008060009054906101000a900473ffffffffffffffffffffffffffffffffffffffff16905090565b6000809054906101000a900473ffffffffffffffffffffffffffffffffffffffff1673ffffffffffffffffffffffffffffffffffffffff163373ffffffffffffffffffffffffffffffffffffffff1614611a2357600080fd5b6000611a2d6123fa565b73ffffffffffffffffffffffffffffffffffffffff166370a08231600560009054906101000a900473ffffffffffffffffffffffffffffffffffffffff166040518263ffffffff1660e01b8152600401808273ffffffffffffffffffffffffffffffffffffffff1673ffffffffffffffffffffffffffffffffffffffff16815260200191505060206040518083038186803b158015611acb57600080fd5b505afa158015611adf573d6000803e3d6000fd5b505050506040513d6020811015611af557600080fd5b81019080805190602001909291905050509050611b106123fa565b73ffffffffffffffffffffffffffffffffffffffff1663a9059cbb600260009054906101000a900473ffffffffffffffffffffffffffffffffffffffff16836040518363ffffffff1660e01b8152600401808373ffffffffffffffffffffffffffffffffffffffff1673ffffffffffffffffffffffffffffffffffffffff16815260200182815260200192505050602060405180830381600087803b158015611bb857600080fd5b505af1158015611bcc573d6000803e3d6000fd5b505050506040513d6020811015611be257600080fd5b81019080805190602001909291905050505050565b611bff6124b6565b73ffffffffffffffffffffffffffffffffffffffff163373ffffffffffffffffffffffffffffffffffffffff1614611c82576040517f08c379a00000000000000000000000000000000000000000000000000000000081526004018080602001828103825260388152602001806127456038913960400191505060405180910390fd5b80611c8b6125f2565b73ffffffffffffffffffffffffffffffffffffffff166370a08231856040518263ffffffff1660e01b8152600401808273ffffffffffffffffffffffffffffffffffffffff1673ffffffffffffffffffffffffffffffffffffffff16815260200191505060206040518083038186803b158015611d0757600080fd5b505afa158015611d1b573d6000803e3d6000fd5b505050506040513d6020811015611d3157600080fd5b81019080805190602001909291905050501015611db6576040517f08c379a00000000000000000000000000000000000000000000000000000000081526004018080602001828103825260108152602001807f696e73756666696369656e74206461690000000000000000000000000000000081525060200191505060405180910390fd5b611dbe6125f2565b73ffffffffffffffffffffffffffffffffffffffff166323b872dd84600560009054906101000a900473ffffffffffffffffffffffffffffffffffffffff16846040518463ffffffff1660e01b8152600401808473ffffffffffffffffffffffffffffffffffffffff1673ffffffffffffffffffffffffffffffffffffffff1681526020018373ffffffffffffffffffffffffffffffffffffffff1673ffffffffffffffffffffffffffffffffffffffff1681526020018281526020019350505050602060405180830381600087803b158015611e9a57600080fd5b505af1158015611eae573d6000803e3d6000fd5b505050506040513d6020811015611ec457600080fd5b810190808051906020019092919050505050611ede6125f2565b73ffffffffffffffffffffffffffffffffffffffff1663095ea7b3600360009054906101000a900473ffffffffffffffffffffffffffffffffffffffff167fffffffffffffffffffffffffffffffffffffffffffffffffffffffffffffffff6040518363ffffffff1660e01b8152600401808373ffffffffffffffffffffffffffffffffffffffff1673ffffffffffffffffffffffffffffffffffffffff16815260200182815260200192505050602060405180830381600087803b158015611fa657600080fd5b505af1158015611fba573d6000803e3d6000fd5b505050506040513d6020811015611fd057600080fd5b810190808051906020019092919050505050600460009054906101000a900473ffffffffffffffffffffffffffffffffffffffff1673ffffffffffffffffffffffffffffffffffffffff1663b6b55f25826040518263ffffffff1660e01b815260040180828152602001915050600060405180830381600087803b15801561205757600080fd5b505af115801561206b573d6000803e3d6000fd5b505050506120776123fa565b73ffffffffffffffffffffffffffffffffffffffff1663867904b433846040518363ffffffff1660e01b8152600401808373ffffffffffffffffffffffffffffffffffffffff1673ffffffffffffffffffffffffffffffffffffffff16815260200182815260200192505050600060405180830381600087803b1580156120fd57600080fd5b505af1158015612111573d6000803e3d6000fd5b50505050505050565b6000806121256123fa565b73ffffffffffffffffffffffffffffffffffffffff166318160ddd6040518163ffffffff1660e01b815260040160206040518083038186803b15801561216a57600080fd5b505afa15801561217e573d6000803e3d6000fd5b505050506040513d602081101561219457600080fd5b810190808051906020019092919050505090506000600460009054906101000a900473ffffffffffffffffffffffffffffffffffffffff1673ffffffffffffffffffffffffffffffffffffffff1663b69ef8a86040518163ffffffff1660e01b815260040160206040518083038186803b15801561221157600080fd5b505afa158015612225573d6000803e3d6000fd5b505050506040513d602081101561223b57600080fd5b8101908080519060200190929190505050905060008214156122635760065492505050612316565b61231161226e6123fa565b73ffffffffffffffffffffffffffffffffffffffff166318160ddd6040518163ffffffff1660e01b815260040160206040518083038186803b1580156122b357600080fd5b505afa1580156122c7573d6000803e3d6000fd5b505050506040513d60208110156122dd57600080fd5b81019080805190602001909291905050506123036127108461257290919063ffffffff16565b6125ac90919063ffffffff16565b925050505b90565b6000600160009054906101000a900473ffffffffffffffffffffffffffffffffffffffff1673ffffffffffffffffffffffffffffffffffffffff1663c4b9d89d306040518263ffffffff1660e01b8152600401808273ffffffffffffffffffffffffffffffffffffffff1673ffffffffffffffffffffffffffffffffffffffff16815260200191505060206040518083038186803b1580156123ba57600080fd5b505afa1580156123ce573d6000803e3d6000fd5b505050506040513d60208110156123e457600080fd5b8101908080519060200190929190505050905090565b6000600160009054906101000a900473ffffffffffffffffffffffffffffffffffffffff1673ffffffffffffffffffffffffffffffffffffffff16631dd1f933612442612319565b6040518263ffffffff1660e01b81526004018082815260200191505060206040518083038186803b15801561247657600080fd5b505afa15801561248a573d6000803e3d6000fd5b505050506040513d60208110156124a057600080fd5b8101908080519060200190929190505050905090565b6000600160009054906101000a900473ffffffffffffffffffffffffffffffffffffffff1673ffffffffffffffffffffffffffffffffffffffff1663d814d6bc6124fe612319565b6040518263ffffffff1660e01b81526004018082815260200191505060206040518083038186803b15801561253257600080fd5b505afa158015612546573d6000803e3d6000fd5b505050506040513d602081101561255c57600080fd5b8101908080519060200190929190505050905090565b60008083141561258557600090506125a6565b600082840290508284828161259657fe5b04146125a157600080fd5b809150505b92915050565b60008082116125ba57600080fd5b60008284816125c557fe5b0490508091505092915050565b6000828211156125e157600080fd5b600082840390508091505092915050565b6000600160009054906101000a900473ffffffffffffffffffffffffffffffffffffffff1673ffffffffffffffffffffffffffffffffffffffff1663d9ac074561263a612319565b6040518263ffffffff1660e01b81526004018082815260200191505060206040518083038186803b15801561266e57600080fd5b505afa158015612682573d6000803e3d6000fd5b505050506040513d602081101561269857600080fd5b810190808051906020019092919050505090509056fe64656c656761746520666f722064697361626c656420666f72207468697320757365723a20726563697069656e74206d75737420696e766f6b652074686520736574436c61696d44656c65676174652066756e6374696f6e2e726577617264206d75737420626520252065787072657373656420617320616e20696e7465676572206265747765656e203020616e642031302c3030306f6e6c792070617469656e636520726567756c6174696f6e20656e67696e652063616e20696e766f6b6520746869732066756e6374696f6ea165627a7a723058205631e189f6bc279ef8a78dd09b2679c442c7c0c27135a793222e77187316847e0029",
  "source": "pragma solidity >=0.5.0 <0.6.0;\nimport \"../node_modules/openzeppelin-solidity/contracts/ownership/Secondary.sol\";\nimport \"../node_modules/openzeppelin-solidity/contracts/math/SafeMath.sol\";\nimport \"../node_modules/openzeppelin-solidity/contracts/token/ERC20/ERC20.sol\";\nimport \"./WeiDai.sol\";\nimport \"./PatienceRegulationEngine.sol\";\nimport \"./baseContracts/Versioned.sol\";\nimport \"./baseContracts/ReserveLike.sol\";\n\ncontract WeiDaiBank is Secondary, Versioned {\n\n\taddress donationAddress;\n\taddress reserveAddress;\n\tReserveLike reserve;\n\taddress self;\n\tuint lastKnownExchangeRate;\n\tmapping (address => mapping (address=> uint)) redeemDelegateReward;\n\n\tusing SafeMath for uint;\n\n\tconstructor() public{\n\t\tself = address(this);\n\t\tlastKnownExchangeRate = 100; //1 weidai == 1 US cent.\n\t\tdonationAddress = msg.sender;\n\t}\n\n\tfunction setDonationAddress(address donation) public onlyPrimary {\n\t\tdonationAddress = donation;\n\t}\n\n\tfunction setReserveAddress(address r) public onlyPrimary {\n\t\treserveAddress = r;\n\t\treserve = ReserveLike(r);\n\t}\n\n\tfunction getDonationAddress () external view returns (address) {\n\t\treturn donationAddress;\n\t}\n\n\tfunction daiBalance() public view returns (uint) {\n\t\treturn reserve.balance();\n\t}\n\n\tfunction daiPerMyriadWeidai() public view returns (uint) {\n\t\tuint totalWeiDai = WeiDai(getWeiDai()).totalSupply();\n\n\t\tuint reserveBalance = reserve.balance();\n\t\tif(totalWeiDai == 0){\n\t\t\treturn lastKnownExchangeRate;\n\t\t}\n\t\treturn reserveBalance\n\t\t.mul(10000) //scale by a myriad\n\t\t.div(WeiDai(getWeiDai()).totalSupply());\n\t}\n\n\tfunction issue(address sender, uint weidai, uint dai) external { //sender is dai holder, msg.sender is calling contract\n\t\trequire(msg.sender == getPRE(), \"only patience regulation engine can invoke this function\");\n\t\trequire(ERC20(getDai()).balanceOf(sender)>=dai,\"insufficient dai\");\n\t\tERC20(getDai()).transferFrom(sender, self, dai);\n\t\tERC20(getDai()).approve(reserveAddress,uint(-1));\n\t\treserve.deposit(dai);\n\t\tWeiDai(getWeiDai()).issue(msg.sender, weidai);\n\t}\n\n\tfunction setClaimDelegate(address delegate, uint rewardPercentage) external versionMatch {\n\t\trequire(rewardPercentage<=10000, \"reward must be % expressed as an integer between 0 and 10,000\");\n\t\tredeemDelegateReward[msg.sender][delegate] = rewardPercentage + 1;\n\t}\n\n\tfunction disableClaimDelegate(address delegate) external versionMatch {\n\t\tredeemDelegateReward[msg.sender][delegate] = 0;\n\t}\n\n\tfunction redeemWeiDaiFor(uint weiDai, address recipient, address bankVersion) external {\n\t\trequire(msg.sender == versionController || redeemDelegateReward[recipient][msg.sender]>0, \"delegate for disabled for this user: recipient must invoke the setClaimDelegate function.\");\n\t\tWeiDaiBank(bankVersion).redeem(weiDai,recipient,msg.sender,redeemDelegateReward[recipient][msg.sender]);\n\t}\n\n\tfunction redeemWeiDai(uint weiDai) external versionMatch {\n\t\tredeem (weiDai, msg.sender,address(0),0);\n\t}\n\n\tfunction redeem(uint weiDai, address recipient, address delegate, uint reward) public {\n\t\tuint exchangeRate = daiPerMyriadWeidai();\n\t\tuint fee = WeiDai(getWeiDai()).totalSupply() - weiDai == 0? 0 : weiDai*2/100;\n\t\tuint donation = (fee*PatienceRegulationEngine(getPRE()).getDonationSplit(recipient))/100;\n\n\n\t\tWeiDai(getWeiDai()).burn(recipient, weiDai-donation);\n\t\tWeiDai(getWeiDai()).transferFrom(recipient, self,donation);\n\n\t\tuint weiDaiToRedeem = weiDai - fee;\n\n\t\tuint daiPayable = weiDaiToRedeem\n\t\t.mul(exchangeRate)\n\t\t.div(10000);\n\t\tuint delegateDai = 0;\n\t\tuint reserveBalance = reserve.balance();\n\t\tdaiPayable = daiPayable>reserveBalance?reserveBalance:daiPayable; //some reserves have precision loss that shouldn't cause redeem to fail\n\t\t//reassign daiPayable to account for precision loss\n\t\tdaiPayable = reserve.withdraw(daiPayable);\n\t\tif(delegate!=address(0) && delegate != versionController)\n\t\t{\n\t\t\tdelegateDai = reward > 0? (daiPayable * (reward-1))/10000 : 0;\n\t\t\tdaiPayable = daiPayable.sub(delegateDai);\n\n\t\t\tERC20(getDai()).transfer(delegate, delegateDai);\n\t\t}\n\t\tERC20(getDai()).transfer(recipient, daiPayable - delegateDai);\n\t\tlastKnownExchangeRate = daiPerMyriadWeidai();\n\t}\n\n\tfunction withdrawDonations() public onlyPrimary {\n\t\tuint balance = ERC20(getWeiDai()).balanceOf(self);\n\t\tERC20(getWeiDai()).transfer(donationAddress,balance);\n\t}\n}\n",
  "sourcePath": "/home/justin/weidai ecosystem/weidai/contracts/WeiDaiBank.sol",
  "compiler": {
    "name": "solc",
    "version": "0.5.7+commit.6da8b019.Emscripten.clang"
  },
  "schemaVersion": "3.0.23",
  "updatedAt": "2020-02-06T08:19:33.862Z",
  "networkType": "ethereum",
  "devdoc": {
    "methods": {
      "primary()": {
        "return": "the address of the primary."
      },
      "transferPrimary(address)": {
        "details": "Transfers contract to a new primary.",
        "params": {
          "recipient": "The address of new primary."
        }
      }
    }
  },
  "userdoc": {
    "methods": {}
  }
}